{
  "_format": "hh-sol-artifact-1",
  "contractName": "ReserveSBT",
  "sourceName": "ReserveSBT.sol",
  "abi": [
    {
      "inputs": [],
      "stateMutability": "nonpayable",
      "type": "constructor"
    },
    {
      "inputs": [
        {
          "internalType": "address",
          "name": "sender",
          "type": "address"
        },
        {
          "internalType": "uint256",
          "name": "tokenId",
          "type": "uint256"
        },
        {
          "internalType": "address",
          "name": "owner",
          "type": "address"
        }
      ],
      "name": "ERC721IncorrectOwner",
      "type": "error"
    },
    {
      "inputs": [
        {
          "internalType": "address",
          "name": "operator",
          "type": "address"
        },
        {
          "internalType": "uint256",
          "name": "tokenId",
          "type": "uint256"
        }
      ],
      "name": "ERC721InsufficientApproval",
      "type": "error"
    },
    {
      "inputs": [
        {
          "internalType": "address",
          "name": "approver",
          "type": "address"
        }
      ],
      "name": "ERC721InvalidApprover",
      "type": "error"
    },
    {
      "inputs": [
        {
          "internalType": "address",
          "name": "operator",
          "type": "address"
        }
      ],
      "name": "ERC721InvalidOperator",
      "type": "error"
    },
    {
      "inputs": [
        {
          "internalType": "address",
          "name": "owner",
          "type": "address"
        }
      ],
      "name": "ERC721InvalidOwner",
      "type": "error"
    },
    {
      "inputs": [
        {
          "internalType": "address",
          "name": "receiver",
          "type": "address"
        }
      ],
      "name": "ERC721InvalidReceiver",
      "type": "error"
    },
    {
      "inputs": [
        {
          "internalType": "address",
          "name": "sender",
          "type": "address"
        }
      ],
      "name": "ERC721InvalidSender",
      "type": "error"
    },
    {
      "inputs": [
        {
          "internalType": "uint256",
          "name": "tokenId",
          "type": "uint256"
        }
      ],
      "name": "ERC721NonexistentToken",
      "type": "error"
    },
    {
      "inputs": [
        {
          "internalType": "address",
          "name": "owner",
          "type": "address"
        }
      ],
      "name": "OwnableInvalidOwner",
      "type": "error"
    },
    {
      "inputs": [
        {
          "internalType": "address",
          "name": "account",
          "type": "address"
        }
      ],
      "name": "OwnableUnauthorizedAccount",
      "type": "error"
    },
    {
      "anonymous": false,
      "inputs": [
        {
          "indexed": true,
          "internalType": "address",
          "name": "owner",
          "type": "address"
        },
        {
          "indexed": true,
          "internalType": "address",
          "name": "approved",
          "type": "address"
        },
        {
          "indexed": true,
          "internalType": "uint256",
          "name": "tokenId",
          "type": "uint256"
        }
      ],
      "name": "Approval",
      "type": "event"
    },
    {
      "anonymous": false,
      "inputs": [
        {
          "indexed": true,
          "internalType": "address",
          "name": "owner",
          "type": "address"
        },
        {
          "indexed": true,
          "internalType": "address",
          "name": "operator",
          "type": "address"
        },
        {
          "indexed": false,
          "internalType": "bool",
          "name": "approved",
          "type": "bool"
        }
      ],
      "name": "ApprovalForAll",
      "type": "event"
    },
    {
      "anonymous": false,
      "inputs": [
        {
          "indexed": false,
          "internalType": "uint256",
          "name": "_fromTokenId",
          "type": "uint256"
        },
        {
          "indexed": false,
          "internalType": "uint256",
          "name": "_toTokenId",
          "type": "uint256"
        }
      ],
      "name": "BatchMetadataUpdate",
      "type": "event"
    },
    {
      "anonymous": false,
      "inputs": [
        {
          "indexed": false,
          "internalType": "uint256",
          "name": "_tokenId",
          "type": "uint256"
        }
      ],
      "name": "MetadataUpdate",
      "type": "event"
    },
    {
      "anonymous": false,
      "inputs": [
        {
          "indexed": true,
          "internalType": "address",
          "name": "previousOwner",
          "type": "address"
        },
        {
          "indexed": true,
          "internalType": "address",
          "name": "newOwner",
          "type": "address"
        }
      ],
      "name": "OwnershipTransferred",
      "type": "event"
    },
    {
      "anonymous": false,
      "inputs": [
        {
          "indexed": true,
          "internalType": "address",
          "name": "from",
          "type": "address"
        },
        {
          "indexed": true,
          "internalType": "address",
          "name": "to",
          "type": "address"
        },
        {
          "indexed": true,
          "internalType": "uint256",
          "name": "tokenId",
          "type": "uint256"
        }
      ],
      "name": "Transfer",
      "type": "event"
    },
    {
      "inputs": [
        {
          "internalType": "address",
          "name": "to",
          "type": "address"
        },
        {
          "internalType": "uint256",
          "name": "tokenId",
          "type": "uint256"
        }
      ],
      "name": "approve",
      "outputs": [],
      "stateMutability": "nonpayable",
      "type": "function"
    },
    {
      "inputs": [
        {
          "internalType": "address",
          "name": "owner",
          "type": "address"
        }
      ],
      "name": "balanceOf",
      "outputs": [
        {
          "internalType": "uint256",
          "name": "",
          "type": "uint256"
        }
      ],
      "stateMutability": "view",
      "type": "function"
    },
    {
      "inputs": [
        {
          "internalType": "uint256",
          "name": "id",
          "type": "uint256"
        }
      ],
      "name": "burnExpired",
      "outputs": [],
      "stateMutability": "nonpayable",
      "type": "function"
    },
    {
      "inputs": [
        {
          "internalType": "uint256",
          "name": "id",
          "type": "uint256"
        }
      ],
      "name": "buyReturnedReservation",
      "outputs": [],
      "stateMutability": "payable",
      "type": "function"
    },
    {
      "inputs": [
        {
          "internalType": "uint256",
          "name": "tokenId",
          "type": "uint256"
        }
      ],
      "name": "getApproved",
      "outputs": [
        {
          "internalType": "address",
          "name": "",
          "type": "address"
        }
      ],
      "stateMutability": "view",
      "type": "function"
    },
    {
      "inputs": [],
      "name": "getAvailableTokenIds",
      "outputs": [
        {
          "internalType": "uint256[]",
          "name": "",
          "type": "uint256[]"
        }
      ],
      "stateMutability": "view",
      "type": "function"
    },
    {
      "inputs": [
        {
          "internalType": "uint256",
          "name": "id",
          "type": "uint256"
        }
      ],
      "name": "getReservationInfo",
      "outputs": [
        {
          "internalType": "address",
          "name": "owner_",
          "type": "address"
        },
        {
          "internalType": "uint256",
          "name": "reservationTime",
          "type": "uint256"
        },
        {
          "internalType": "uint256",
          "name": "partySize",
          "type": "uint256"
        },
        {
          "internalType": "uint256",
          "name": "deposit",
          "type": "uint256"
        },
        {
          "internalType": "enum ReserveSBT.State",
          "name": "state",
          "type": "uint8"
        }
      ],
      "stateMutability": "view",
      "type": "function"
    },
    {
      "inputs": [
        {
          "internalType": "uint256",
          "name": "",
          "type": "uint256"
        }
      ],
      "name": "infos",
      "outputs": [
        {
          "internalType": "uint256",
          "name": "reservationTime",
          "type": "uint256"
        },
        {
          "internalType": "uint256",
          "name": "partySize",
          "type": "uint256"
        },
        {
          "internalType": "uint256",
          "name": "deposit",
          "type": "uint256"
        },
        {
          "internalType": "enum ReserveSBT.State",
          "name": "state",
          "type": "uint8"
        }
      ],
      "stateMutability": "view",
      "type": "function"
    },
    {
      "inputs": [
        {
          "internalType": "address",
          "name": "owner",
          "type": "address"
        },
        {
          "internalType": "address",
          "name": "operator",
          "type": "address"
        }
      ],
      "name": "isApprovedForAll",
      "outputs": [
        {
          "internalType": "bool",
          "name": "",
          "type": "bool"
        }
      ],
      "stateMutability": "view",
      "type": "function"
    },
    {
      "inputs": [
        {
          "internalType": "address",
          "name": "guest",
          "type": "address"
        },
        {
          "internalType": "uint256",
          "name": "reservationTime",
          "type": "uint256"
        },
        {
          "internalType": "uint256",
          "name": "partySize",
          "type": "uint256"
        }
      ],
      "name": "mintReservation",
      "outputs": [],
      "stateMutability": "payable",
      "type": "function"
    },
    {
      "inputs": [],
      "name": "name",
      "outputs": [
        {
          "internalType": "string",
          "name": "",
          "type": "string"
        }
      ],
      "stateMutability": "view",
      "type": "function"
    },
    {
      "inputs": [],
      "name": "nextId",
      "outputs": [
        {
          "internalType": "uint256",
          "name": "",
          "type": "uint256"
        }
      ],
      "stateMutability": "view",
      "type": "function"
    },
    {
      "inputs": [],
      "name": "owner",
      "outputs": [
        {
          "internalType": "address",
          "name": "",
          "type": "address"
        }
      ],
      "stateMutability": "view",
      "type": "function"
    },
    {
      "inputs": [
        {
          "internalType": "uint256",
          "name": "tokenId",
          "type": "uint256"
        }
      ],
      "name": "ownerOf",
      "outputs": [
        {
          "internalType": "address",
          "name": "",
          "type": "address"
        }
      ],
      "stateMutability": "view",
      "type": "function"
    },
    {
      "inputs": [],
      "name": "renounceOwnership",
      "outputs": [],
      "stateMutability": "nonpayable",
      "type": "function"
    },
    {
      "inputs": [
        {
          "internalType": "uint256",
          "name": "id",
          "type": "uint256"
        }
      ],
      "name": "returnReservation",
      "outputs": [],
      "stateMutability": "nonpayable",
      "type": "function"
    },
    {
      "inputs": [
        {
          "internalType": "uint256",
          "name": "",
          "type": "uint256"
        }
      ],
      "name": "returnedList",
      "outputs": [
        {
          "internalType": "uint256",
          "name": "",
          "type": "uint256"
        }
      ],
      "stateMutability": "view",
      "type": "function"
    },
    {
      "inputs": [
        {
          "internalType": "address",
          "name": "from",
          "type": "address"
        },
        {
          "internalType": "address",
          "name": "to",
          "type": "address"
        },
        {
          "internalType": "uint256",
          "name": "tokenId",
          "type": "uint256"
        }
      ],
      "name": "safeTransferFrom",
      "outputs": [],
      "stateMutability": "nonpayable",
      "type": "function"
    },
    {
      "inputs": [
        {
          "internalType": "address",
          "name": "from",
          "type": "address"
        },
        {
          "internalType": "address",
          "name": "to",
          "type": "address"
        },
        {
          "internalType": "uint256",
          "name": "tokenId",
          "type": "uint256"
        },
        {
          "internalType": "bytes",
          "name": "data",
          "type": "bytes"
        }
      ],
      "name": "safeTransferFrom",
      "outputs": [],
      "stateMutability": "nonpayable",
      "type": "function"
    },
    {
      "inputs": [
        {
          "internalType": "address",
          "name": "operator",
          "type": "address"
        },
        {
          "internalType": "bool",
          "name": "approved",
          "type": "bool"
        }
      ],
      "name": "setApprovalForAll",
      "outputs": [],
      "stateMutability": "nonpayable",
      "type": "function"
    },
    {
      "inputs": [
        {
          "internalType": "bytes4",
          "name": "interfaceId",
          "type": "bytes4"
        }
      ],
      "name": "supportsInterface",
      "outputs": [
        {
          "internalType": "bool",
          "name": "",
          "type": "bool"
        }
      ],
      "stateMutability": "view",
      "type": "function"
    },
    {
      "inputs": [],
      "name": "symbol",
      "outputs": [
        {
          "internalType": "string",
          "name": "",
          "type": "string"
        }
      ],
      "stateMutability": "view",
      "type": "function"
    },
    {
      "inputs": [
        {
          "internalType": "uint256",
          "name": "tokenId",
          "type": "uint256"
        }
      ],
      "name": "tokenURI",
      "outputs": [
        {
          "internalType": "string",
          "name": "",
          "type": "string"
        }
      ],
      "stateMutability": "view",
      "type": "function"
    },
    {
      "inputs": [
        {
          "internalType": "address",
          "name": "from",
          "type": "address"
        },
        {
          "internalType": "address",
          "name": "to",
          "type": "address"
        },
        {
          "internalType": "uint256",
          "name": "tokenId",
          "type": "uint256"
        }
      ],
      "name": "transferFrom",
      "outputs": [],
      "stateMutability": "nonpayable",
      "type": "function"
    },
    {
      "inputs": [
        {
          "internalType": "address",
          "name": "newOwner",
          "type": "address"
        }
      ],
      "name": "transferOwnership",
      "outputs": [],
      "stateMutability": "nonpayable",
      "type": "function"
    }
  ],
  "bytecode": "0x608060405260016008553480156200001657600080fd5b50336040518060400160405280600f81526020017f5265736572766174696f6e204e465400000000000000000000000000000000008152506040518060400160405280600381526020017f5253420000000000000000000000000000000000000000000000000000000000815250816000908162000095919062000477565b508060019081620000a7919062000477565b505050600073ffffffffffffffffffffffffffffffffffffffff168173ffffffffffffffffffffffffffffffffffffffff16036200011f5760006040517f1e4fbdf7000000000000000000000000000000000000000000000000000000008152600401620001169190620005a3565b60405180910390fd5b62000130816200013760201b60201c565b50620005c0565b6000600760009054906101000a900473ffffffffffffffffffffffffffffffffffffffff16905081600760006101000a81548173ffffffffffffffffffffffffffffffffffffffff021916908373ffffffffffffffffffffffffffffffffffffffff1602179055508173ffffffffffffffffffffffffffffffffffffffff168173ffffffffffffffffffffffffffffffffffffffff167f8be0079c531659141344cd1fd0a4f28419497f9722a3daafe3b4186f6b6457e060405160405180910390a35050565b600081519050919050565b7f4e487b7100000000000000000000000000000000000000000000000000000000600052604160045260246000fd5b7f4e487b7100000000000000000000000000000000000000000000000000000000600052602260045260246000fd5b600060028204905060018216806200027f57607f821691505b60208210810362000295576200029462000237565b5b50919050565b60008190508160005260206000209050919050565b60006020601f8301049050919050565b600082821b905092915050565b600060088302620002ff7fffffffffffffffffffffffffffffffffffffffffffffffffffffffffffffffff82620002c0565b6200030b8683620002c0565b95508019841693508086168417925050509392505050565b6000819050919050565b6000819050919050565b600062000358620003526200034c8462000323565b6200032d565b62000323565b9050919050565b6000819050919050565b620003748362000337565b6200038c62000383826200035f565b848454620002cd565b825550505050565b600090565b620003a362000394565b620003b081848462000369565b505050565b5b81811015620003d857620003cc60008262000399565b600181019050620003b6565b5050565b601f8211156200042757620003f1816200029b565b620003fc84620002b0565b810160208510156200040c578190505b620004246200041b85620002b0565b830182620003b5565b50505b505050565b600082821c905092915050565b60006200044c600019846008026200042c565b1980831691505092915050565b600062000467838362000439565b9150826002028217905092915050565b6200048282620001fd565b67ffffffffffffffff8111156200049e576200049d62000208565b5b620004aa825462000266565b620004b7828285620003dc565b600060209050601f831160018114620004ef5760008415620004da578287015190505b620004e6858262000459565b86555062000556565b601f198416620004ff866200029b565b60005b82811015620005295784890151825560018201915060208501945060208101905062000502565b8683101562000549578489015162000545601f89168262000439565b8355505b6001600288020188555050505b505050505050565b600073ffffffffffffffffffffffffffffffffffffffff82169050919050565b60006200058b826200055e565b9050919050565b6200059d816200057e565b82525050565b6000602082019050620005ba600083018462000592565b92915050565b61360580620005d06000396000f3fe6080604052600436106101665760003560e01c8063715018a6116100d1578063bbacf43b1161008a578063d098769b11610064578063d098769b14610537578063e4ad0be914610560578063e985e9c51461059d578063f2fde38b146105da57610166565b8063bbacf43b146104b3578063c13f0a47146104cf578063c87b56dd146104fa57610166565b8063715018a6146103d85780638da5cb5b146103ef57806395d89b411461041a578063a22cb46514610445578063b88d4fde1461046e578063ba74c83c1461049757610166565b806328bb41cf1161012357806328bb41cf1461028b57806328de3c9b146102cb57806342842e0e1461030a57806361b8ce8c146103335780636352211e1461035e57806370a082311461039b57610166565b806301ffc9a71461016b57806306fdde03146101a8578063081812fc146101d3578063095ea7b31461021057806316acbbf71461023957806323b872dd14610262575b600080fd5b34801561017757600080fd5b50610192600480360381019061018d91906127d8565b610603565b60405161019f9190612820565b60405180910390f35b3480156101b457600080fd5b506101bd610664565b6040516101ca91906128cb565b60405180910390f35b3480156101df57600080fd5b506101fa60048036038101906101f59190612923565b6106f6565b6040516102079190612991565b60405180910390f35b34801561021c57600080fd5b50610237600480360381019061023291906129d8565b610712565b005b34801561024557600080fd5b50610260600480360381019061025b9190612923565b610728565b005b34801561026e57600080fd5b5061028960048036038101906102849190612a18565b610885565b005b34801561029757600080fd5b506102b260048036038101906102ad9190612923565b610987565b6040516102c29493929190612af1565b60405180910390f35b3480156102d757600080fd5b506102f260048036038101906102ed9190612923565b610a26565b60405161030193929190612b36565b60405180910390f35b34801561031657600080fd5b50610331600480360381019061032c9190612a18565b610a5d565b005b34801561033f57600080fd5b50610348610a7d565b6040516103559190612b6d565b60405180910390f35b34801561036a57600080fd5b5061038560048036038101906103809190612923565b610a83565b6040516103929190612991565b60405180910390f35b3480156103a757600080fd5b506103c260048036038101906103bd9190612b88565b610a95565b6040516103cf9190612b6d565b60405180910390f35b3480156103e457600080fd5b506103ed610b4f565b005b3480156103fb57600080fd5b50610404610b63565b6040516104119190612991565b60405180910390f35b34801561042657600080fd5b5061042f610b8d565b60405161043c91906128cb565b60405180910390f35b34801561045157600080fd5b5061046c60048036038101906104679190612be1565b610c1f565b005b34801561047a57600080fd5b5061049560048036038101906104909190612d56565b610c35565b005b6104b160048036038101906104ac9190612923565b610c5a565b005b6104cd60048036038101906104c891906129d8565b610e64565b005b3480156104db57600080fd5b506104e4610f61565b6040516104f19190612e97565b60405180910390f35b34801561050657600080fd5b50610521600480360381019061051c9190612923565b610fb9565b60405161052e91906128cb565b60405180910390f35b34801561054357600080fd5b5061055e60048036038101906105599190612923565b6110cc565b005b34801561056c57600080fd5b5061058760048036038101906105829190612923565b6111b1565b6040516105949190612b6d565b60405180910390f35b3480156105a957600080fd5b506105c460048036038101906105bf9190612eb9565b6111d5565b6040516105d19190612820565b60405180910390f35b3480156105e657600080fd5b5061060160048036038101906105fc9190612b88565b611269565b005b6000634906490660e01b7bffffffffffffffffffffffffffffffffffffffffffffffffffffffff1916827bffffffffffffffffffffffffffffffffffffffffffffffffffffffff1916148061065d575061065c826112ef565b5b9050919050565b60606000805461067390612f28565b80601f016020809104026020016040519081016040528092919081815260200182805461069f90612f28565b80156106ec5780601f106106c1576101008083540402835291602001916106ec565b820191906000526020600020905b8154815290600101906020018083116106cf57829003601f168201915b5050505050905090565b6000610701826113d1565b5061070b82611459565b9050919050565b610724828261071f611496565b61149e565b5050565b3373ffffffffffffffffffffffffffffffffffffffff1661074882610a83565b73ffffffffffffffffffffffffffffffffffffffff161461079e576040517f08c379a000000000000000000000000000000000000000000000000000000000815260040161079590612fa5565b60405180910390fd5b600060028111156107b2576107b1612a7a565b5b6009600083815260200190815260200160002060020160009054906101000a900460ff1660028111156107e8576107e7612a7a565b5b14610828576040517f08c379a000000000000000000000000000000000000000000000000000000000815260040161081f90613011565b60405180910390fd5b61083a33610834610b63565b836114b0565b60016009600083815260200190815260200160002060020160006101000a81548160ff0219169083600281111561087457610873612a7a565b5b02179055506108828161161d565b50565b600073ffffffffffffffffffffffffffffffffffffffff168273ffffffffffffffffffffffffffffffffffffffff16036108f75760006040517f64a0ae920000000000000000000000000000000000000000000000000000000081526004016108ee9190612991565b60405180910390fd5b600061090b8383610906611496565b611672565b90508373ffffffffffffffffffffffffffffffffffffffff168173ffffffffffffffffffffffffffffffffffffffff1614610981578382826040517f64283d7b00000000000000000000000000000000000000000000000000000000815260040161097893929190613031565b60405180910390fd5b50505050565b60008060008060006009600087815260200190815260200160002060405180606001604052908160008201548152602001600182015481526020016002820160009054906101000a900460ff1660028111156109e6576109e5612a7a565b5b60028111156109f8576109f7612a7a565b5b815250509050610a0786610a83565b8160000151826020015183604001519450945094509450509193509193565b60096020528060005260406000206000915090508060000154908060010154908060020160009054906101000a900460ff16905083565b610a7883838360405180602001604052806000815250610c35565b505050565b60085481565b6000610a8e826113d1565b9050919050565b60008073ffffffffffffffffffffffffffffffffffffffff168273ffffffffffffffffffffffffffffffffffffffff1603610b085760006040517f89c62b64000000000000000000000000000000000000000000000000000000008152600401610aff9190612991565b60405180910390fd5b600360008373ffffffffffffffffffffffffffffffffffffffff1673ffffffffffffffffffffffffffffffffffffffff168152602001908152602001600020549050919050565b610b576117aa565b610b616000611831565b565b6000600760009054906101000a900473ffffffffffffffffffffffffffffffffffffffff16905090565b606060018054610b9c90612f28565b80601f0160208091040260200160405190810160405280929190818152602001828054610bc890612f28565b8015610c155780601f10610bea57610100808354040283529160200191610c15565b820191906000526020600020905b815481529060010190602001808311610bf857829003601f168201915b5050505050905090565b610c31610c2a611496565b83836118f7565b5050565b610c40848484610885565b610c54610c4b611496565b85858585611a66565b50505050565b600060096000838152602001908152602001600020905060016002811115610c8557610c84612a7a565b5b8160020160009054906101000a900460ff166002811115610ca957610ca8612a7a565b5b14610ce9576040517f08c379a0000000000000000000000000000000000000000000000000000000008152600401610ce0906130b4565b60405180910390fd5b60006064605f8360010154610cfe9190613103565b610d089190613174565b905080341015610d4d576040517f08c379a0000000000000000000000000000000000000000000000000000000008152600401610d44906131f1565b60405180910390fd5b60006064605a8460010154610d629190613103565b610d6c9190613174565b9050610d7784610a83565b73ffffffffffffffffffffffffffffffffffffffff166108fc829081150290604051600060405180830381858888f19350505050158015610dbc573d6000803e3d6000fd5b50610dc5610b63565b73ffffffffffffffffffffffffffffffffffffffff166108fc8234610dea9190613211565b9081150290604051600060405180830381858888f19350505050158015610e15573d6000803e3d6000fd5b50610e28610e21610b63565b33866114b0565b60008360020160006101000a81548160ff02191690836002811115610e5057610e4f612a7a565b5b0217905550610e5e84611c17565b50505050565b610e6c6117aa565b60003411610eaf576040517f08c379a0000000000000000000000000000000000000000000000000000000008152600401610ea690613291565b60405180910390fd5b600060086000815480929190610ec4906132b1565b919050559050610ed48382611cff565b604051806060016040528083815260200134815260200160006002811115610eff57610efe612a7a565b5b81525060096000838152602001908152602001600020600082015181600001556020820151816001015560408201518160020160006101000a81548160ff02191690836002811115610f5457610f53612a7a565b5b0217905550905050505050565b6060600a805480602002602001604051908101604052809291908181526020018280548015610faf57602002820191906000526020600020905b815481526020019060010190808311610f9b575b5050505050905090565b6060610fc4826113d1565b506000600660008481526020019081526020016000208054610fe590612f28565b80601f016020809104026020016040519081016040528092919081815260200182805461101190612f28565b801561105e5780601f106110335761010080835404028352916020019161105e565b820191906000526020600020905b81548152906001019060200180831161104157829003601f168201915b50505050509050600061106f611d1d565b905060008151036110845781925050506110c7565b6000825111156110b95780826040516020016110a1929190613335565b604051602081830303815290604052925050506110c7565b6110c284611d34565b925050505b919050565b6110d46117aa565b6002808111156110e7576110e6612a7a565b5b6009600083815260200190815260200160002060020160009054906101000a900460ff16600281111561111d5761111c612a7a565b5b0361115d576040517f08c379a0000000000000000000000000000000000000000000000000000000008152600401611154906133a5565b60405180910390fd5b60026009600083815260200190815260200160002060020160006101000a81548160ff0219169083600281111561119757611196612a7a565b5b02179055506111a581611c17565b6111ae81611d9d565b50565b600a81815481106111c157600080fd5b906000526020600020016000915090505481565b6000600560008473ffffffffffffffffffffffffffffffffffffffff1673ffffffffffffffffffffffffffffffffffffffff16815260200190815260200160002060008373ffffffffffffffffffffffffffffffffffffffff1673ffffffffffffffffffffffffffffffffffffffff16815260200190815260200160002060009054906101000a900460ff16905092915050565b6112716117aa565b600073ffffffffffffffffffffffffffffffffffffffff168173ffffffffffffffffffffffffffffffffffffffff16036112e35760006040517f1e4fbdf70000000000000000000000000000000000000000000000000000000081526004016112da9190612991565b60405180910390fd5b6112ec81611831565b50565b60007f80ac58cd000000000000000000000000000000000000000000000000000000007bffffffffffffffffffffffffffffffffffffffffffffffffffffffff1916827bffffffffffffffffffffffffffffffffffffffffffffffffffffffff191614806113ba57507f5b5e139f000000000000000000000000000000000000000000000000000000007bffffffffffffffffffffffffffffffffffffffffffffffffffffffff1916827bffffffffffffffffffffffffffffffffffffffffffffffffffffffff1916145b806113ca57506113c982611e23565b5b9050919050565b6000806113dd83611e8d565b9050600073ffffffffffffffffffffffffffffffffffffffff168173ffffffffffffffffffffffffffffffffffffffff160361145057826040517f7e2732890000000000000000000000000000000000000000000000000000000081526004016114479190612b6d565b60405180910390fd5b80915050919050565b60006004600083815260200190815260200160002060009054906101000a900473ffffffffffffffffffffffffffffffffffffffff169050919050565b600033905090565b6114ab8383836001611eca565b505050565b600073ffffffffffffffffffffffffffffffffffffffff168273ffffffffffffffffffffffffffffffffffffffff16036115225760006040517f64a0ae920000000000000000000000000000000000000000000000000000000081526004016115199190612991565b60405180910390fd5b600061153083836000611672565b9050600073ffffffffffffffffffffffffffffffffffffffff168173ffffffffffffffffffffffffffffffffffffffff16036115a357816040517f7e27328900000000000000000000000000000000000000000000000000000000815260040161159a9190612b6d565b60405180910390fd5b8373ffffffffffffffffffffffffffffffffffffffff168173ffffffffffffffffffffffffffffffffffffffff1614611617578382826040517f64283d7b00000000000000000000000000000000000000000000000000000000815260040161160e93929190613031565b60405180910390fd5b50505050565b6001600a8054905061162f91906133c5565b600b600083815260200190815260200160002081905550600a81908060018154018082558091505060019003906000526020600020016000909190919091505550565b600061167f84848461208f565b9050600073ffffffffffffffffffffffffffffffffffffffff168173ffffffffffffffffffffffffffffffffffffffff16141580156116eb5750600073ffffffffffffffffffffffffffffffffffffffff168473ffffffffffffffffffffffffffffffffffffffff1614155b156117a3576116f8610b63565b73ffffffffffffffffffffffffffffffffffffffff168173ffffffffffffffffffffffffffffffffffffffff1614806117635750611734610b63565b73ffffffffffffffffffffffffffffffffffffffff168473ffffffffffffffffffffffffffffffffffffffff16145b6117a2576040517f08c379a000000000000000000000000000000000000000000000000000000000815260040161179990613445565b60405180910390fd5b5b9392505050565b6117b2611496565b73ffffffffffffffffffffffffffffffffffffffff166117d0610b63565b73ffffffffffffffffffffffffffffffffffffffff161461182f576117f3611496565b6040517f118cdaa70000000000000000000000000000000000000000000000000000000081526004016118269190612991565b60405180910390fd5b565b6000600760009054906101000a900473ffffffffffffffffffffffffffffffffffffffff16905081600760006101000a81548173ffffffffffffffffffffffffffffffffffffffff021916908373ffffffffffffffffffffffffffffffffffffffff1602179055508173ffffffffffffffffffffffffffffffffffffffff168173ffffffffffffffffffffffffffffffffffffffff167f8be0079c531659141344cd1fd0a4f28419497f9722a3daafe3b4186f6b6457e060405160405180910390a35050565b600073ffffffffffffffffffffffffffffffffffffffff168273ffffffffffffffffffffffffffffffffffffffff160361196857816040517f5b08ba1800000000000000000000000000000000000000000000000000000000815260040161195f9190612991565b60405180910390fd5b80600560008573ffffffffffffffffffffffffffffffffffffffff1673ffffffffffffffffffffffffffffffffffffffff16815260200190815260200160002060008473ffffffffffffffffffffffffffffffffffffffff1673ffffffffffffffffffffffffffffffffffffffff16815260200190815260200160002060006101000a81548160ff0219169083151502179055508173ffffffffffffffffffffffffffffffffffffffff168373ffffffffffffffffffffffffffffffffffffffff167f17307eab39ab6107e8899845ad3d59bd9653f200f220920489ca2b5937696c3183604051611a599190612820565b60405180910390a3505050565b60008373ffffffffffffffffffffffffffffffffffffffff163b1115611c10578273ffffffffffffffffffffffffffffffffffffffff1663150b7a02868685856040518563ffffffff1660e01b8152600401611ac594939291906134ba565b6020604051808303816000875af1925050508015611b0157506040513d601f19601f82011682018060405250810190611afe919061351b565b60015b611b85573d8060008114611b31576040519150601f19603f3d011682016040523d82523d6000602084013e611b36565b606091505b506000815103611b7d57836040517f64a0ae92000000000000000000000000000000000000000000000000000000008152600401611b749190612991565b60405180910390fd5b805181602001fd5b63150b7a0260e01b7bffffffffffffffffffffffffffffffffffffffffffffffffffffffff1916817bffffffffffffffffffffffffffffffffffffffffffffffffffffffff191614611c0e57836040517f64a0ae92000000000000000000000000000000000000000000000000000000008152600401611c059190612991565b60405180910390fd5b505b5050505050565b6000600b600083815260200190815260200160002054905060008103611c3d5750611cfc565b6000600a6001600a80549050611c539190613211565b81548110611c6457611c63613548565b5b9060005260206000200154905080600a600184611c819190613211565b81548110611c9257611c91613548565b5b906000526020600020018190555081600b600083815260200190815260200160002081905550600a805480611cca57611cc9613577565b5b600190038181906000526020600020016000905590556000600b60008581526020019081526020016000208190555050505b50565b611d198282604051806020016040528060008152506122a9565b5050565b606060405180602001604052806000815250905090565b6060611d3f826113d1565b506000611d4a611d1d565b90506000815111611d6a5760405180602001604052806000815250611d95565b80611d74846122cd565b604051602001611d85929190613335565b6040516020818303038152906040525b915050919050565b6000611dac6000836000611672565b9050600073ffffffffffffffffffffffffffffffffffffffff168173ffffffffffffffffffffffffffffffffffffffff1603611e1f57816040517f7e273289000000000000000000000000000000000000000000000000000000008152600401611e169190612b6d565b60405180910390fd5b5050565b60007f01ffc9a7000000000000000000000000000000000000000000000000000000007bffffffffffffffffffffffffffffffffffffffffffffffffffffffff1916827bffffffffffffffffffffffffffffffffffffffffffffffffffffffff1916149050919050565b60006002600083815260200190815260200160002060009054906101000a900473ffffffffffffffffffffffffffffffffffffffff169050919050565b8080611f035750600073ffffffffffffffffffffffffffffffffffffffff168273ffffffffffffffffffffffffffffffffffffffff1614155b15612037576000611f13846113d1565b9050600073ffffffffffffffffffffffffffffffffffffffff168373ffffffffffffffffffffffffffffffffffffffff1614158015611f7e57508273ffffffffffffffffffffffffffffffffffffffff168173ffffffffffffffffffffffffffffffffffffffff1614155b8015611f915750611f8f81846111d5565b155b15611fd357826040517fa9fbf51f000000000000000000000000000000000000000000000000000000008152600401611fca9190612991565b60405180910390fd5b811561203557838573ffffffffffffffffffffffffffffffffffffffff168273ffffffffffffffffffffffffffffffffffffffff167f8c5be1e5ebec7d5bd14f71427d1e84f3dd0314c0f7b2291e5b200ac8c7c3b92560405160405180910390a45b505b836004600085815260200190815260200160002060006101000a81548173ffffffffffffffffffffffffffffffffffffffff021916908373ffffffffffffffffffffffffffffffffffffffff16021790555050505050565b60008061209b84611e8d565b9050600073ffffffffffffffffffffffffffffffffffffffff168373ffffffffffffffffffffffffffffffffffffffff16146120dd576120dc81848661239b565b5b600073ffffffffffffffffffffffffffffffffffffffff168173ffffffffffffffffffffffffffffffffffffffff161461216e5761211f600085600080611eca565b6001600360008373ffffffffffffffffffffffffffffffffffffffff1673ffffffffffffffffffffffffffffffffffffffff168152602001908152602001600020600082825403925050819055505b600073ffffffffffffffffffffffffffffffffffffffff168573ffffffffffffffffffffffffffffffffffffffff16146121f1576001600360008773ffffffffffffffffffffffffffffffffffffffff1673ffffffffffffffffffffffffffffffffffffffff168152602001908152602001600020600082825401925050819055505b846002600086815260200190815260200160002060006101000a81548173ffffffffffffffffffffffffffffffffffffffff021916908373ffffffffffffffffffffffffffffffffffffffff160217905550838573ffffffffffffffffffffffffffffffffffffffff168273ffffffffffffffffffffffffffffffffffffffff167fddf252ad1be2c89b69c2b068fc378daa952ba7f163c4a11628f55a4df523b3ef60405160405180910390a4809150509392505050565b6122b3838361245f565b6122c86122be611496565b6000858585611a66565b505050565b6060600060016122dc84612558565b01905060008167ffffffffffffffff8111156122fb576122fa612c2b565b5b6040519080825280601f01601f19166020018201604052801561232d5781602001600182028036833780820191505090505b509050600082602001820190505b600115612390578080600190039150507f3031323334353637383961626364656600000000000000000000000000000000600a86061a8153600a858161238457612383613145565b5b0494506000850361233b575b819350505050919050565b6123a68383836126ab565b61245a57600073ffffffffffffffffffffffffffffffffffffffff168373ffffffffffffffffffffffffffffffffffffffff160361241b57806040517f7e2732890000000000000000000000000000000000000000000000000000000081526004016124129190612b6d565b60405180910390fd5b81816040517f177e802f0000000000000000000000000000000000000000000000000000000081526004016124519291906135a6565b60405180910390fd5b505050565b600073ffffffffffffffffffffffffffffffffffffffff168273ffffffffffffffffffffffffffffffffffffffff16036124d15760006040517f64a0ae920000000000000000000000000000000000000000000000000000000081526004016124c89190612991565b60405180910390fd5b60006124df83836000611672565b9050600073ffffffffffffffffffffffffffffffffffffffff168173ffffffffffffffffffffffffffffffffffffffff16146125535760006040517f73c6ac6e00000000000000000000000000000000000000000000000000000000815260040161254a9190612991565b60405180910390fd5b505050565b600080600090507a184f03e93ff9f4daa797ed6e38ed64bf6a1f01000000000000000083106125b6577a184f03e93ff9f4daa797ed6e38ed64bf6a1f01000000000000000083816125ac576125ab613145565b5b0492506040810190505b6d04ee2d6d415b85acef810000000083106125f3576d04ee2d6d415b85acef810000000083816125e9576125e8613145565b5b0492506020810190505b662386f26fc10000831061262257662386f26fc10000838161261857612617613145565b5b0492506010810190505b6305f5e100831061264b576305f5e100838161264157612640613145565b5b0492506008810190505b612710831061267057612710838161266657612665613145565b5b0492506004810190505b60648310612693576064838161268957612688613145565b5b0492506002810190505b600a83106126a2576001810190505b80915050919050565b60008073ffffffffffffffffffffffffffffffffffffffff168373ffffffffffffffffffffffffffffffffffffffff161415801561276357508273ffffffffffffffffffffffffffffffffffffffff168473ffffffffffffffffffffffffffffffffffffffff161480612724575061272384846111d5565b5b8061276257508273ffffffffffffffffffffffffffffffffffffffff1661274a83611459565b73ffffffffffffffffffffffffffffffffffffffff16145b5b90509392505050565b6000604051905090565b600080fd5b600080fd5b60007fffffffff0000000000000000000000000000000000000000000000000000000082169050919050565b6127b581612780565b81146127c057600080fd5b50565b6000813590506127d2816127ac565b92915050565b6000602082840312156127ee576127ed612776565b5b60006127fc848285016127c3565b91505092915050565b60008115159050919050565b61281a81612805565b82525050565b60006020820190506128356000830184612811565b92915050565b600081519050919050565b600082825260208201905092915050565b60005b8381101561287557808201518184015260208101905061285a565b60008484015250505050565b6000601f19601f8301169050919050565b600061289d8261283b565b6128a78185612846565b93506128b7818560208601612857565b6128c081612881565b840191505092915050565b600060208201905081810360008301526128e58184612892565b905092915050565b6000819050919050565b612900816128ed565b811461290b57600080fd5b50565b60008135905061291d816128f7565b92915050565b60006020828403121561293957612938612776565b5b60006129478482850161290e565b91505092915050565b600073ffffffffffffffffffffffffffffffffffffffff82169050919050565b600061297b82612950565b9050919050565b61298b81612970565b82525050565b60006020820190506129a66000830184612982565b92915050565b6129b581612970565b81146129c057600080fd5b50565b6000813590506129d2816129ac565b92915050565b600080604083850312156129ef576129ee612776565b5b60006129fd858286016129c3565b9250506020612a0e8582860161290e565b9150509250929050565b600080600060608486031215612a3157612a30612776565b5b6000612a3f868287016129c3565b9350506020612a50868287016129c3565b9250506040612a618682870161290e565b9150509250925092565b612a74816128ed565b82525050565b7f4e487b7100000000000000000000000000000000000000000000000000000000600052602160045260246000fd5b60038110612aba57612ab9612a7a565b5b50565b6000819050612acb82612aa9565b919050565b6000612adb82612abd565b9050919050565b612aeb81612ad0565b82525050565b6000608082019050612b066000830187612982565b612b136020830186612a6b565b612b206040830185612a6b565b612b2d6060830184612ae2565b95945050505050565b6000606082019050612b4b6000830186612a6b565b612b586020830185612a6b565b612b656040830184612ae2565b949350505050565b6000602082019050612b826000830184612a6b565b92915050565b600060208284031215612b9e57612b9d612776565b5b6000612bac848285016129c3565b91505092915050565b612bbe81612805565b8114612bc957600080fd5b50565b600081359050612bdb81612bb5565b92915050565b60008060408385031215612bf857612bf7612776565b5b6000612c06858286016129c3565b9250506020612c1785828601612bcc565b9150509250929050565b600080fd5b600080fd5b7f4e487b7100000000000000000000000000000000000000000000000000000000600052604160045260246000fd5b612c6382612881565b810181811067ffffffffffffffff82111715612c8257612c81612c2b565b5b80604052505050565b6000612c9561276c565b9050612ca18282612c5a565b919050565b600067ffffffffffffffff821115612cc157612cc0612c2b565b5b612cca82612881565b9050602081019050919050565b82818337600083830152505050565b6000612cf9612cf484612ca6565b612c8b565b905082815260208101848484011115612d1557612d14612c26565b5b612d20848285612cd7565b509392505050565b600082601f830112612d3d57612d3c612c21565b5b8135612d4d848260208601612ce6565b91505092915050565b60008060008060808587031215612d7057612d6f612776565b5b6000612d7e878288016129c3565b9450506020612d8f878288016129c3565b9350506040612da08782880161290e565b925050606085013567ffffffffffffffff811115612dc157612dc061277b565b5b612dcd87828801612d28565b91505092959194509250565b600081519050919050565b600082825260208201905092915050565b6000819050602082019050919050565b612e0e816128ed565b82525050565b6000612e208383612e05565b60208301905092915050565b6000602082019050919050565b6000612e4482612dd9565b612e4e8185612de4565b9350612e5983612df5565b8060005b83811015612e8a578151612e718882612e14565b9750612e7c83612e2c565b925050600181019050612e5d565b5085935050505092915050565b60006020820190508181036000830152612eb18184612e39565b905092915050565b60008060408385031215612ed057612ecf612776565b5b6000612ede858286016129c3565b9250506020612eef858286016129c3565b9150509250929050565b7f4e487b7100000000000000000000000000000000000000000000000000000000600052602260045260246000fd5b60006002820490506001821680612f4057607f821691505b602082108103612f5357612f52612ef9565b5b50919050565b7f6e6f74206f776e65720000000000000000000000000000000000000000000000600082015250565b6000612f8f600983612846565b9150612f9a82612f59565b602082019050919050565b60006020820190508181036000830152612fbe81612f82565b9050919050565b7f7374617465000000000000000000000000000000000000000000000000000000600082015250565b6000612ffb600583612846565b915061300682612fc5565b602082019050919050565b6000602082019050818103600083015261302a81612fee565b9050919050565b60006060820190506130466000830186612982565b6130536020830185612a6b565b6130606040830184612982565b949350505050565b7f6e6f742072657475726e65640000000000000000000000000000000000000000600082015250565b600061309e600c83612846565b91506130a982613068565b602082019050919050565b600060208201905081810360008301526130cd81613091565b9050919050565b7f4e487b7100000000000000000000000000000000000000000000000000000000600052601160045260246000fd5b600061310e826128ed565b9150613119836128ed565b9250828202613127816128ed565b9150828204841483151761313e5761313d6130d4565b5b5092915050565b7f4e487b7100000000000000000000000000000000000000000000000000000000600052601260045260246000fd5b600061317f826128ed565b915061318a836128ed565b92508261319a57613199613145565b5b828204905092915050565b7f756e646572706179000000000000000000000000000000000000000000000000600082015250565b60006131db600883612846565b91506131e6826131a5565b602082019050919050565b6000602082019050818103600083015261320a816131ce565b9050919050565b600061321c826128ed565b9150613227836128ed565b925082820390508181111561323f5761323e6130d4565b5b92915050565b7f6465706f73697420726571756972656400000000000000000000000000000000600082015250565b600061327b601083612846565b915061328682613245565b602082019050919050565b600060208201905081810360008301526132aa8161326e565b9050919050565b60006132bc826128ed565b91507fffffffffffffffffffffffffffffffffffffffffffffffffffffffffffffffff82036132ee576132ed6130d4565b5b600182019050919050565b600081905092915050565b600061330f8261283b565b61331981856132f9565b9350613329818560208601612857565b80840191505092915050565b60006133418285613304565b915061334d8284613304565b91508190509392505050565b7f616c726561647900000000000000000000000000000000000000000000000000600082015250565b600061338f600783612846565b915061339a82613359565b602082019050919050565b600060208201905081810360008301526133be81613382565b9050919050565b60006133d0826128ed565b91506133db836128ed565b92508282019050808211156133f3576133f26130d4565b5b92915050565b7f736f756c2d626f756e6400000000000000000000000000000000000000000000600082015250565b600061342f600a83612846565b915061343a826133f9565b602082019050919050565b6000602082019050818103600083015261345e81613422565b9050919050565b600081519050919050565b600082825260208201905092915050565b600061348c82613465565b6134968185613470565b93506134a6818560208601612857565b6134af81612881565b840191505092915050565b60006080820190506134cf6000830187612982565b6134dc6020830186612982565b6134e96040830185612a6b565b81810360608301526134fb8184613481565b905095945050505050565b600081519050613515816127ac565b92915050565b60006020828403121561353157613530612776565b5b600061353f84828501613506565b91505092915050565b7f4e487b7100000000000000000000000000000000000000000000000000000000600052603260045260246000fd5b7f4e487b7100000000000000000000000000000000000000000000000000000000600052603160045260246000fd5b60006040820190506135bb6000830185612982565b6135c86020830184612a6b565b939250505056fea2646970667358221220ef7e98fc7d7255e7dc16e07e7ae1f0ef682c5595b87bc8f960023cb4a4c86b6364736f6c63430008180033",
  "linkReferences": {},
  "deployedLinkReferences": {}
}