{
  "_format": "hh-sol-artifact-1",
  "contractName": "ReserveSBT",
  "sourceName": "contracts/ReserveSBT.sol",
  "abi": [
    {
      "inputs": [],
      "stateMutability": "nonpayable",
      "type": "constructor"
    },
    {
      "inputs": [
        {
          "internalType": "address",
          "name": "sender",
          "type": "address"
        },
        {
          "internalType": "uint256",
          "name": "tokenId",
          "type": "uint256"
        },
        {
          "internalType": "address",
          "name": "owner",
          "type": "address"
        }
      ],
      "name": "ERC721IncorrectOwner",
      "type": "error"
    },
    {
      "inputs": [
        {
          "internalType": "address",
          "name": "operator",
          "type": "address"
        },
        {
          "internalType": "uint256",
          "name": "tokenId",
          "type": "uint256"
        }
      ],
      "name": "ERC721InsufficientApproval",
      "type": "error"
    },
    {
      "inputs": [
        {
          "internalType": "address",
          "name": "approver",
          "type": "address"
        }
      ],
      "name": "ERC721InvalidApprover",
      "type": "error"
    },
    {
      "inputs": [
        {
          "internalType": "address",
          "name": "operator",
          "type": "address"
        }
      ],
      "name": "ERC721InvalidOperator",
      "type": "error"
    },
    {
      "inputs": [
        {
          "internalType": "address",
          "name": "owner",
          "type": "address"
        }
      ],
      "name": "ERC721InvalidOwner",
      "type": "error"
    },
    {
      "inputs": [
        {
          "internalType": "address",
          "name": "receiver",
          "type": "address"
        }
      ],
      "name": "ERC721InvalidReceiver",
      "type": "error"
    },
    {
      "inputs": [
        {
          "internalType": "address",
          "name": "sender",
          "type": "address"
        }
      ],
      "name": "ERC721InvalidSender",
      "type": "error"
    },
    {
      "inputs": [
        {
          "internalType": "uint256",
          "name": "tokenId",
          "type": "uint256"
        }
      ],
      "name": "ERC721NonexistentToken",
      "type": "error"
    },
    {
      "inputs": [
        {
          "internalType": "address",
          "name": "owner",
          "type": "address"
        }
      ],
      "name": "OwnableInvalidOwner",
      "type": "error"
    },
    {
      "inputs": [
        {
          "internalType": "address",
          "name": "account",
          "type": "address"
        }
      ],
      "name": "OwnableUnauthorizedAccount",
      "type": "error"
    },
    {
      "anonymous": false,
      "inputs": [
        {
          "indexed": true,
          "internalType": "address",
          "name": "owner",
          "type": "address"
        },
        {
          "indexed": true,
          "internalType": "address",
          "name": "approved",
          "type": "address"
        },
        {
          "indexed": true,
          "internalType": "uint256",
          "name": "tokenId",
          "type": "uint256"
        }
      ],
      "name": "Approval",
      "type": "event"
    },
    {
      "anonymous": false,
      "inputs": [
        {
          "indexed": true,
          "internalType": "address",
          "name": "owner",
          "type": "address"
        },
        {
          "indexed": true,
          "internalType": "address",
          "name": "operator",
          "type": "address"
        },
        {
          "indexed": false,
          "internalType": "bool",
          "name": "approved",
          "type": "bool"
        }
      ],
      "name": "ApprovalForAll",
      "type": "event"
    },
    {
      "anonymous": false,
      "inputs": [
        {
          "indexed": false,
          "internalType": "uint256",
          "name": "_fromTokenId",
          "type": "uint256"
        },
        {
          "indexed": false,
          "internalType": "uint256",
          "name": "_toTokenId",
          "type": "uint256"
        }
      ],
      "name": "BatchMetadataUpdate",
      "type": "event"
    },
    {
      "anonymous": false,
      "inputs": [
        {
          "indexed": false,
          "internalType": "uint256",
          "name": "_tokenId",
          "type": "uint256"
        }
      ],
      "name": "MetadataUpdate",
      "type": "event"
    },
    {
      "anonymous": false,
      "inputs": [
        {
          "indexed": true,
          "internalType": "address",
          "name": "previousOwner",
          "type": "address"
        },
        {
          "indexed": true,
          "internalType": "address",
          "name": "newOwner",
          "type": "address"
        }
      ],
      "name": "OwnershipTransferred",
      "type": "event"
    },
    {
      "anonymous": false,
      "inputs": [
        {
          "indexed": true,
          "internalType": "address",
          "name": "from",
          "type": "address"
        },
        {
          "indexed": true,
          "internalType": "address",
          "name": "to",
          "type": "address"
        },
        {
          "indexed": true,
          "internalType": "uint256",
          "name": "tokenId",
          "type": "uint256"
        }
      ],
      "name": "Transfer",
      "type": "event"
    },
    {
      "inputs": [
        {
          "internalType": "address",
          "name": "to",
          "type": "address"
        },
        {
          "internalType": "uint256",
          "name": "tokenId",
          "type": "uint256"
        }
      ],
      "name": "approve",
      "outputs": [],
      "stateMutability": "nonpayable",
      "type": "function"
    },
    {
      "inputs": [
        {
          "internalType": "address",
          "name": "owner",
          "type": "address"
        }
      ],
      "name": "balanceOf",
      "outputs": [
        {
          "internalType": "uint256",
          "name": "",
          "type": "uint256"
        }
      ],
      "stateMutability": "view",
      "type": "function"
    },
    {
      "inputs": [
        {
          "internalType": "uint256",
          "name": "id",
          "type": "uint256"
        }
      ],
      "name": "burnExpired",
      "outputs": [],
      "stateMutability": "nonpayable",
      "type": "function"
    },
    {
      "inputs": [
        {
          "internalType": "uint256",
          "name": "id",
          "type": "uint256"
        }
      ],
      "name": "buyReturnedReservation",
      "outputs": [],
      "stateMutability": "payable",
      "type": "function"
    },
    {
      "inputs": [
        {
          "internalType": "uint256",
          "name": "tokenId",
          "type": "uint256"
        }
      ],
      "name": "getApproved",
      "outputs": [
        {
          "internalType": "address",
          "name": "",
          "type": "address"
        }
      ],
      "stateMutability": "view",
      "type": "function"
    },
    {
      "inputs": [],
      "name": "getAvailableTokenIds",
      "outputs": [
        {
          "internalType": "uint256[]",
          "name": "",
          "type": "uint256[]"
        }
      ],
      "stateMutability": "view",
      "type": "function"
    },
    {
      "inputs": [
        {
          "internalType": "uint256",
          "name": "id",
          "type": "uint256"
        }
      ],
      "name": "getReservationInfo",
      "outputs": [
        {
          "internalType": "address",
          "name": "owner_",
          "type": "address"
        },
        {
          "internalType": "uint256",
          "name": "reservationTime",
          "type": "uint256"
        },
        {
          "internalType": "uint256",
          "name": "partySize",
          "type": "uint256"
        },
        {
          "internalType": "uint256",
          "name": "deposit",
          "type": "uint256"
        },
        {
          "internalType": "enum ReserveSBT.State",
          "name": "state",
          "type": "uint8"
        }
      ],
      "stateMutability": "view",
      "type": "function"
    },
    {
      "inputs": [
        {
          "internalType": "uint256",
          "name": "",
          "type": "uint256"
        }
      ],
      "name": "infos",
      "outputs": [
        {
          "internalType": "uint256",
          "name": "reservationTime",
          "type": "uint256"
        },
        {
          "internalType": "uint256",
          "name": "partySize",
          "type": "uint256"
        },
        {
          "internalType": "uint256",
          "name": "deposit",
          "type": "uint256"
        },
        {
          "internalType": "enum ReserveSBT.State",
          "name": "state",
          "type": "uint8"
        }
      ],
      "stateMutability": "view",
      "type": "function"
    },
    {
      "inputs": [
        {
          "internalType": "address",
          "name": "owner",
          "type": "address"
        },
        {
          "internalType": "address",
          "name": "operator",
          "type": "address"
        }
      ],
      "name": "isApprovedForAll",
      "outputs": [
        {
          "internalType": "bool",
          "name": "",
          "type": "bool"
        }
      ],
      "stateMutability": "view",
      "type": "function"
    },
    {
      "inputs": [
        {
          "internalType": "address",
          "name": "guest",
          "type": "address"
        },
        {
          "internalType": "uint256",
          "name": "reservationTime",
          "type": "uint256"
        },
        {
          "internalType": "uint256",
          "name": "partySize",
          "type": "uint256"
        }
      ],
      "name": "mintReservation",
      "outputs": [],
      "stateMutability": "payable",
      "type": "function"
    },
    {
      "inputs": [],
      "name": "name",
      "outputs": [
        {
          "internalType": "string",
          "name": "",
          "type": "string"
        }
      ],
      "stateMutability": "view",
      "type": "function"
    },
    {
      "inputs": [],
      "name": "nextId",
      "outputs": [
        {
          "internalType": "uint256",
          "name": "",
          "type": "uint256"
        }
      ],
      "stateMutability": "view",
      "type": "function"
    },
    {
      "inputs": [],
      "name": "owner",
      "outputs": [
        {
          "internalType": "address",
          "name": "",
          "type": "address"
        }
      ],
      "stateMutability": "view",
      "type": "function"
    },
    {
      "inputs": [
        {
          "internalType": "uint256",
          "name": "tokenId",
          "type": "uint256"
        }
      ],
      "name": "ownerOf",
      "outputs": [
        {
          "internalType": "address",
          "name": "",
          "type": "address"
        }
      ],
      "stateMutability": "view",
      "type": "function"
    },
    {
      "inputs": [],
      "name": "renounceOwnership",
      "outputs": [],
      "stateMutability": "nonpayable",
      "type": "function"
    },
    {
      "inputs": [
        {
          "internalType": "uint256",
          "name": "id",
          "type": "uint256"
        }
      ],
      "name": "returnReservation",
      "outputs": [],
      "stateMutability": "nonpayable",
      "type": "function"
    },
    {
      "inputs": [
        {
          "internalType": "uint256",
          "name": "",
          "type": "uint256"
        }
      ],
      "name": "returnedList",
      "outputs": [
        {
          "internalType": "uint256",
          "name": "",
          "type": "uint256"
        }
      ],
      "stateMutability": "view",
      "type": "function"
    },
    {
      "inputs": [
        {
          "internalType": "address",
          "name": "from",
          "type": "address"
        },
        {
          "internalType": "address",
          "name": "to",
          "type": "address"
        },
        {
          "internalType": "uint256",
          "name": "tokenId",
          "type": "uint256"
        }
      ],
      "name": "safeTransferFrom",
      "outputs": [],
      "stateMutability": "nonpayable",
      "type": "function"
    },
    {
      "inputs": [
        {
          "internalType": "address",
          "name": "from",
          "type": "address"
        },
        {
          "internalType": "address",
          "name": "to",
          "type": "address"
        },
        {
          "internalType": "uint256",
          "name": "tokenId",
          "type": "uint256"
        },
        {
          "internalType": "bytes",
          "name": "data",
          "type": "bytes"
        }
      ],
      "name": "safeTransferFrom",
      "outputs": [],
      "stateMutability": "nonpayable",
      "type": "function"
    },
    {
      "inputs": [
        {
          "internalType": "address",
          "name": "operator",
          "type": "address"
        },
        {
          "internalType": "bool",
          "name": "approved",
          "type": "bool"
        }
      ],
      "name": "setApprovalForAll",
      "outputs": [],
      "stateMutability": "nonpayable",
      "type": "function"
    },
    {
      "inputs": [
        {
          "internalType": "bytes4",
          "name": "interfaceId",
          "type": "bytes4"
        }
      ],
      "name": "supportsInterface",
      "outputs": [
        {
          "internalType": "bool",
          "name": "",
          "type": "bool"
        }
      ],
      "stateMutability": "view",
      "type": "function"
    },
    {
      "inputs": [],
      "name": "symbol",
      "outputs": [
        {
          "internalType": "string",
          "name": "",
          "type": "string"
        }
      ],
      "stateMutability": "view",
      "type": "function"
    },
    {
      "inputs": [
        {
          "internalType": "uint256",
          "name": "tokenId",
          "type": "uint256"
        }
      ],
      "name": "tokenURI",
      "outputs": [
        {
          "internalType": "string",
          "name": "",
          "type": "string"
        }
      ],
      "stateMutability": "view",
      "type": "function"
    },
    {
      "inputs": [
        {
          "internalType": "address",
          "name": "from",
          "type": "address"
        },
        {
          "internalType": "address",
          "name": "to",
          "type": "address"
        },
        {
          "internalType": "uint256",
          "name": "tokenId",
          "type": "uint256"
        }
      ],
      "name": "transferFrom",
      "outputs": [],
      "stateMutability": "nonpayable",
      "type": "function"
    },
    {
      "inputs": [
        {
          "internalType": "address",
          "name": "newOwner",
          "type": "address"
        }
      ],
      "name": "transferOwnership",
      "outputs": [],
      "stateMutability": "nonpayable",
      "type": "function"
    }
  ],
  "bytecode": "0x608060405260016008553480156200001657600080fd5b506040518060400160405280600f81526020017f5265736572766174696f6e204e465400000000000000000000000000000000008152506040518060400160405280600381526020017f5253420000000000000000000000000000000000000000000000000000000000815250816000908162000094919062000417565b508060019081620000a6919062000417565b505050620000c9620000bd620000cf60201b60201c565b620000d760201b60201c565b620004fe565b600033905090565b6000600760009054906101000a900473ffffffffffffffffffffffffffffffffffffffff16905081600760006101000a81548173ffffffffffffffffffffffffffffffffffffffff021916908373ffffffffffffffffffffffffffffffffffffffff1602179055508173ffffffffffffffffffffffffffffffffffffffff168173ffffffffffffffffffffffffffffffffffffffff167f8be0079c531659141344cd1fd0a4f28419497f9722a3daafe3b4186f6b6457e060405160405180910390a35050565b600081519050919050565b7f4e487b7100000000000000000000000000000000000000000000000000000000600052604160045260246000fd5b7f4e487b7100000000000000000000000000000000000000000000000000000000600052602260045260246000fd5b600060028204905060018216806200021f57607f821691505b602082108103620002355762000234620001d7565b5b50919050565b60008190508160005260206000209050919050565b60006020601f8301049050919050565b600082821b905092915050565b6000600883026200029f7fffffffffffffffffffffffffffffffffffffffffffffffffffffffffffffffff8262000260565b620002ab868362000260565b95508019841693508086168417925050509392505050565b6000819050919050565b6000819050919050565b6000620002f8620002f2620002ec84620002c3565b620002cd565b620002c3565b9050919050565b6000819050919050565b6200031483620002d7565b6200032c6200032382620002ff565b8484546200026d565b825550505050565b600090565b6200034362000334565b6200035081848462000309565b505050565b5b8181101562000378576200036c60008262000339565b60018101905062000356565b5050565b601f821115620003c75762000391816200023b565b6200039c8462000250565b81016020851015620003ac578190505b620003c4620003bb8562000250565b83018262000355565b50505b505050565b600082821c905092915050565b6000620003ec60001984600802620003cc565b1980831691505092915050565b6000620004078383620003d9565b9150826002028217905092915050565b62000422826200019d565b67ffffffffffffffff8111156200043e576200043d620001a8565b5b6200044a825462000206565b620004578282856200037c565b600060209050601f8311600181146200048f57600084156200047a578287015190505b620004868582620003f9565b865550620004f6565b601f1984166200049f866200023b565b60005b82811015620004c957848901518255600182019150602085019450602081019050620004a2565b86831015620004e95784890151620004e5601f891682620003d9565b8355505b6001600288020188555050505b505050505050565b613dd2806200050e6000396000f3fe6080604052600436106101665760003560e01c8063715018a6116100d1578063bbacf43b1161008a578063d098769b11610064578063d098769b14610537578063e4ad0be914610560578063e985e9c51461059d578063f2fde38b146105da57610166565b8063bbacf43b146104b3578063c13f0a47146104cf578063c87b56dd146104fa57610166565b8063715018a6146103d85780638da5cb5b146103ef57806395d89b411461041a578063a22cb46514610445578063b88d4fde1461046e578063ba74c83c1461049757610166565b806328bb41cf1161012357806328bb41cf1461028b57806328de3c9b146102cb57806342842e0e1461030a57806361b8ce8c146103335780636352211e1461035e57806370a082311461039b57610166565b806301ffc9a71461016b57806306fdde03146101a8578063081812fc146101d3578063095ea7b31461021057806316acbbf71461023957806323b872dd14610262575b600080fd5b34801561017757600080fd5b50610192600480360381019061018d9190612959565b610603565b60405161019f91906129a1565b60405180910390f35b3480156101b457600080fd5b506101bd610664565b6040516101ca9190612a4c565b60405180910390f35b3480156101df57600080fd5b506101fa60048036038101906101f59190612aa4565b6106f6565b6040516102079190612b12565b60405180910390f35b34801561021c57600080fd5b5061023760048036038101906102329190612b59565b61073c565b005b34801561024557600080fd5b50610260600480360381019061025b9190612aa4565b610853565b005b34801561026e57600080fd5b5061028960048036038101906102849190612b99565b6109b0565b005b34801561029757600080fd5b506102b260048036038101906102ad9190612aa4565b610a10565b6040516102c29493929190612c72565b60405180910390f35b3480156102d757600080fd5b506102f260048036038101906102ed9190612aa4565b610aaf565b60405161030193929190612cb7565b60405180910390f35b34801561031657600080fd5b50610331600480360381019061032c9190612b99565b610ae6565b005b34801561033f57600080fd5b50610348610b06565b6040516103559190612cee565b60405180910390f35b34801561036a57600080fd5b5061038560048036038101906103809190612aa4565b610b0c565b6040516103929190612b12565b60405180910390f35b3480156103a757600080fd5b506103c260048036038101906103bd9190612d09565b610b92565b6040516103cf9190612cee565b60405180910390f35b3480156103e457600080fd5b506103ed610c49565b005b3480156103fb57600080fd5b50610404610c5d565b6040516104119190612b12565b60405180910390f35b34801561042657600080fd5b5061042f610c87565b60405161043c9190612a4c565b60405180910390f35b34801561045157600080fd5b5061046c60048036038101906104679190612d62565b610d19565b005b34801561047a57600080fd5b5061049560048036038101906104909190612ed7565b610d2f565b005b6104b160048036038101906104ac9190612aa4565b610d91565b005b6104cd60048036038101906104c89190612b59565b610f9b565b005b3480156104db57600080fd5b506104e4611098565b6040516104f19190613018565b60405180910390f35b34801561050657600080fd5b50610521600480360381019061051c9190612aa4565b6110f0565b60405161052e9190612a4c565b60405180910390f35b34801561054357600080fd5b5061055e60048036038101906105599190612aa4565b611202565b005b34801561056c57600080fd5b5061058760048036038101906105829190612aa4565b6112e7565b6040516105949190612cee565b60405180910390f35b3480156105a957600080fd5b506105c460048036038101906105bf919061303a565b61130b565b6040516105d191906129a1565b60405180910390f35b3480156105e657600080fd5b5061060160048036038101906105fc9190612d09565b61139f565b005b6000634906490660e01b7bffffffffffffffffffffffffffffffffffffffffffffffffffffffff1916827bffffffffffffffffffffffffffffffffffffffffffffffffffffffff1916148061065d575061065c82611422565b5b9050919050565b606060008054610673906130a9565b80601f016020809104026020016040519081016040528092919081815260200182805461069f906130a9565b80156106ec5780601f106106c1576101008083540402835291602001916106ec565b820191906000526020600020905b8154815290600101906020018083116106cf57829003601f168201915b5050505050905090565b600061070182611504565b6004600083815260200190815260200160002060009054906101000a900473ffffffffffffffffffffffffffffffffffffffff169050919050565b600061074782610b0c565b90508073ffffffffffffffffffffffffffffffffffffffff168373ffffffffffffffffffffffffffffffffffffffff16036107b7576040517f08c379a00000000000000000000000000000000000000000000000000000000081526004016107ae9061314c565b60405180910390fd5b8073ffffffffffffffffffffffffffffffffffffffff166107d661154f565b73ffffffffffffffffffffffffffffffffffffffff1614806108055750610804816107ff61154f565b61130b565b5b610844576040517f08c379a000000000000000000000000000000000000000000000000000000000815260040161083b906131de565b60405180910390fd5b61084e8383611557565b505050565b3373ffffffffffffffffffffffffffffffffffffffff1661087382610b0c565b73ffffffffffffffffffffffffffffffffffffffff16146108c9576040517f08c379a00000000000000000000000000000000000000000000000000000000081526004016108c09061324a565b60405180910390fd5b600060028111156108dd576108dc612bfb565b5b6009600083815260200190815260200160002060020160009054906101000a900460ff16600281111561091357610912612bfb565b5b14610953576040517f08c379a000000000000000000000000000000000000000000000000000000000815260040161094a906132b6565b60405180910390fd5b6109653361095f610c5d565b83611610565b60016009600083815260200190815260200160002060020160006101000a81548160ff0219169083600281111561099f5761099e612bfb565b5b02179055506109ad81611909565b50565b6109c16109bb61154f565b8261195e565b610a00576040517f08c379a00000000000000000000000000000000000000000000000000000000081526004016109f790613348565b60405180910390fd5b610a0b838383611610565b505050565b60008060008060006009600087815260200190815260200160002060405180606001604052908160008201548152602001600182015481526020016002820160009054906101000a900460ff166002811115610a6f57610a6e612bfb565b5b6002811115610a8157610a80612bfb565b5b815250509050610a9086610b0c565b8160000151826020015183604001519450945094509450509193509193565b60096020528060005260406000206000915090508060000154908060010154908060020160009054906101000a900460ff16905083565b610b0183838360405180602001604052806000815250610d2f565b505050565b60085481565b600080610b18836119f3565b9050600073ffffffffffffffffffffffffffffffffffffffff168173ffffffffffffffffffffffffffffffffffffffff1603610b89576040517f08c379a0000000000000000000000000000000000000000000000000000000008152600401610b80906133b4565b60405180910390fd5b80915050919050565b60008073ffffffffffffffffffffffffffffffffffffffff168273ffffffffffffffffffffffffffffffffffffffff1603610c02576040517f08c379a0000000000000000000000000000000000000000000000000000000008152600401610bf990613446565b60405180910390fd5b600360008373ffffffffffffffffffffffffffffffffffffffff1673ffffffffffffffffffffffffffffffffffffffff168152602001908152602001600020549050919050565b610c51611a30565b610c5b6000611aae565b565b6000600760009054906101000a900473ffffffffffffffffffffffffffffffffffffffff16905090565b606060018054610c96906130a9565b80601f0160208091040260200160405190810160405280929190818152602001828054610cc2906130a9565b8015610d0f5780601f10610ce457610100808354040283529160200191610d0f565b820191906000526020600020905b815481529060010190602001808311610cf257829003601f168201915b5050505050905090565b610d2b610d2461154f565b8383611b74565b5050565b610d40610d3a61154f565b8361195e565b610d7f576040517f08c379a0000000000000000000000000000000000000000000000000000000008152600401610d7690613348565b60405180910390fd5b610d8b84848484611ce0565b50505050565b600060096000838152602001908152602001600020905060016002811115610dbc57610dbb612bfb565b5b8160020160009054906101000a900460ff166002811115610de057610ddf612bfb565b5b14610e20576040517f08c379a0000000000000000000000000000000000000000000000000000000008152600401610e17906134b2565b60405180910390fd5b60006064605f8360010154610e359190613501565b610e3f9190613572565b905080341015610e84576040517f08c379a0000000000000000000000000000000000000000000000000000000008152600401610e7b906135ef565b60405180910390fd5b60006064605a8460010154610e999190613501565b610ea39190613572565b9050610eae84610b0c565b73ffffffffffffffffffffffffffffffffffffffff166108fc829081150290604051600060405180830381858888f19350505050158015610ef3573d6000803e3d6000fd5b50610efc610c5d565b73ffffffffffffffffffffffffffffffffffffffff166108fc8234610f21919061360f565b9081150290604051600060405180830381858888f19350505050158015610f4c573d6000803e3d6000fd5b50610f5f610f58610c5d565b3386611610565b60008360020160006101000a81548160ff02191690836002811115610f8757610f86612bfb565b5b0217905550610f9584611d3c565b50505050565b610fa3611a30565b60003411610fe6576040517f08c379a0000000000000000000000000000000000000000000000000000000008152600401610fdd9061368f565b60405180910390fd5b600060086000815480929190610ffb906136af565b91905055905061100b8382611e24565b60405180606001604052808381526020013481526020016000600281111561103657611035612bfb565b5b81525060096000838152602001908152602001600020600082015181600001556020820151816001015560408201518160020160006101000a81548160ff0219169083600281111561108b5761108a612bfb565b5b0217905550905050505050565b6060600a8054806020026020016040519081016040528092919081815260200182805480156110e657602002820191906000526020600020905b8154815260200190600101908083116110d2575b5050505050905090565b60606110fb82611504565b600060066000848152602001908152602001600020805461111b906130a9565b80601f0160208091040260200160405190810160405280929190818152602001828054611147906130a9565b80156111945780601f1061116957610100808354040283529160200191611194565b820191906000526020600020905b81548152906001019060200180831161117757829003601f168201915b5050505050905060006111a5611e42565b905060008151036111ba5781925050506111fd565b6000825111156111ef5780826040516020016111d7929190613733565b604051602081830303815290604052925050506111fd565b6111f884611e59565b925050505b919050565b61120a611a30565b60028081111561121d5761121c612bfb565b5b6009600083815260200190815260200160002060020160009054906101000a900460ff16600281111561125357611252612bfb565b5b03611293576040517f08c379a000000000000000000000000000000000000000000000000000000000815260040161128a906137a3565b60405180910390fd5b60026009600083815260200190815260200160002060020160006101000a81548160ff021916908360028111156112cd576112cc612bfb565b5b02179055506112db81611d3c565b6112e481611ec1565b50565b600a81815481106112f757600080fd5b906000526020600020016000915090505481565b6000600560008473ffffffffffffffffffffffffffffffffffffffff1673ffffffffffffffffffffffffffffffffffffffff16815260200190815260200160002060008373ffffffffffffffffffffffffffffffffffffffff1673ffffffffffffffffffffffffffffffffffffffff16815260200190815260200160002060009054906101000a900460ff16905092915050565b6113a7611a30565b600073ffffffffffffffffffffffffffffffffffffffff168173ffffffffffffffffffffffffffffffffffffffff1603611416576040517f08c379a000000000000000000000000000000000000000000000000000000000815260040161140d90613835565b60405180910390fd5b61141f81611aae565b50565b60007f80ac58cd000000000000000000000000000000000000000000000000000000007bffffffffffffffffffffffffffffffffffffffffffffffffffffffff1916827bffffffffffffffffffffffffffffffffffffffffffffffffffffffff191614806114ed57507f5b5e139f000000000000000000000000000000000000000000000000000000007bffffffffffffffffffffffffffffffffffffffffffffffffffffffff1916827bffffffffffffffffffffffffffffffffffffffffffffffffffffffff1916145b806114fd57506114fc82611f14565b5b9050919050565b61150d81611f7e565b61154c576040517f08c379a0000000000000000000000000000000000000000000000000000000008152600401611543906133b4565b60405180910390fd5b50565b600033905090565b816004600083815260200190815260200160002060006101000a81548173ffffffffffffffffffffffffffffffffffffffff021916908373ffffffffffffffffffffffffffffffffffffffff160217905550808273ffffffffffffffffffffffffffffffffffffffff166115ca83610b0c565b73ffffffffffffffffffffffffffffffffffffffff167f8c5be1e5ebec7d5bd14f71427d1e84f3dd0314c0f7b2291e5b200ac8c7c3b92560405160405180910390a45050565b8273ffffffffffffffffffffffffffffffffffffffff1661163082610b0c565b73ffffffffffffffffffffffffffffffffffffffff1614611686576040517f08c379a000000000000000000000000000000000000000000000000000000000815260040161167d906138c7565b60405180910390fd5b600073ffffffffffffffffffffffffffffffffffffffff168273ffffffffffffffffffffffffffffffffffffffff16036116f5576040517f08c379a00000000000000000000000000000000000000000000000000000000081526004016116ec90613959565b60405180910390fd5b6117028383836001611fbf565b8273ffffffffffffffffffffffffffffffffffffffff1661172282610b0c565b73ffffffffffffffffffffffffffffffffffffffff1614611778576040517f08c379a000000000000000000000000000000000000000000000000000000000815260040161176f906138c7565b60405180910390fd5b6004600082815260200190815260200160002060006101000a81549073ffffffffffffffffffffffffffffffffffffffff02191690556001600360008573ffffffffffffffffffffffffffffffffffffffff1673ffffffffffffffffffffffffffffffffffffffff168152602001908152602001600020600082825403925050819055506001600360008473ffffffffffffffffffffffffffffffffffffffff1673ffffffffffffffffffffffffffffffffffffffff16815260200190815260200160002060008282540192505081905550816002600083815260200190815260200160002060006101000a81548173ffffffffffffffffffffffffffffffffffffffff021916908373ffffffffffffffffffffffffffffffffffffffff160217905550808273ffffffffffffffffffffffffffffffffffffffff168473ffffffffffffffffffffffffffffffffffffffff167fddf252ad1be2c89b69c2b068fc378daa952ba7f163c4a11628f55a4df523b3ef60405160405180910390a461190483838360016120f3565b505050565b6001600a8054905061191b9190613979565b600b600083815260200190815260200160002081905550600a81908060018154018082558091505060019003906000526020600020016000909190919091505550565b60008061196a83610b0c565b90508073ffffffffffffffffffffffffffffffffffffffff168473ffffffffffffffffffffffffffffffffffffffff1614806119ac57506119ab818561130b565b5b806119ea57508373ffffffffffffffffffffffffffffffffffffffff166119d2846106f6565b73ffffffffffffffffffffffffffffffffffffffff16145b91505092915050565b60006002600083815260200190815260200160002060009054906101000a900473ffffffffffffffffffffffffffffffffffffffff169050919050565b611a3861154f565b73ffffffffffffffffffffffffffffffffffffffff16611a56610c5d565b73ffffffffffffffffffffffffffffffffffffffff1614611aac576040517f08c379a0000000000000000000000000000000000000000000000000000000008152600401611aa3906139f9565b60405180910390fd5b565b6000600760009054906101000a900473ffffffffffffffffffffffffffffffffffffffff16905081600760006101000a81548173ffffffffffffffffffffffffffffffffffffffff021916908373ffffffffffffffffffffffffffffffffffffffff1602179055508173ffffffffffffffffffffffffffffffffffffffff168173ffffffffffffffffffffffffffffffffffffffff167f8be0079c531659141344cd1fd0a4f28419497f9722a3daafe3b4186f6b6457e060405160405180910390a35050565b8173ffffffffffffffffffffffffffffffffffffffff168373ffffffffffffffffffffffffffffffffffffffff1603611be2576040517f08c379a0000000000000000000000000000000000000000000000000000000008152600401611bd990613a65565b60405180910390fd5b80600560008573ffffffffffffffffffffffffffffffffffffffff1673ffffffffffffffffffffffffffffffffffffffff16815260200190815260200160002060008473ffffffffffffffffffffffffffffffffffffffff1673ffffffffffffffffffffffffffffffffffffffff16815260200190815260200160002060006101000a81548160ff0219169083151502179055508173ffffffffffffffffffffffffffffffffffffffff168373ffffffffffffffffffffffffffffffffffffffff167f17307eab39ab6107e8899845ad3d59bd9653f200f220920489ca2b5937696c3183604051611cd391906129a1565b60405180910390a3505050565b611ceb848484611610565b611cf7848484846120f9565b611d36576040517f08c379a0000000000000000000000000000000000000000000000000000000008152600401611d2d90613af7565b60405180910390fd5b50505050565b6000600b600083815260200190815260200160002054905060008103611d625750611e21565b6000600a6001600a80549050611d78919061360f565b81548110611d8957611d88613b17565b5b9060005260206000200154905080600a600184611da6919061360f565b81548110611db757611db6613b17565b5b906000526020600020018190555081600b600083815260200190815260200160002081905550600a805480611def57611dee613b46565b5b600190038181906000526020600020016000905590556000600b60008581526020019081526020016000208190555050505b50565b611e3e828260405180602001604052806000815250612280565b5050565b606060405180602001604052806000815250905090565b6060611e6482611504565b6000611e6e611e42565b90506000815111611e8e5760405180602001604052806000815250611eb9565b80611e98846122db565b604051602001611ea9929190613733565b6040516020818303038152906040525b915050919050565b611eca816123a9565b6000600660008381526020019081526020016000208054611eea906130a9565b905014611f1157600660008281526020019081526020016000206000611f109190612890565b5b50565b60007f01ffc9a7000000000000000000000000000000000000000000000000000000007bffffffffffffffffffffffffffffffffffffffffffffffffffffffff1916827bffffffffffffffffffffffffffffffffffffffffffffffffffffffff1916149050919050565b60008073ffffffffffffffffffffffffffffffffffffffff16611fa0836119f3565b73ffffffffffffffffffffffffffffffffffffffff1614159050919050565b611fcb848484846124f7565b600073ffffffffffffffffffffffffffffffffffffffff168473ffffffffffffffffffffffffffffffffffffffff16141580156120355750600073ffffffffffffffffffffffffffffffffffffffff168373ffffffffffffffffffffffffffffffffffffffff1614155b156120ed57612042610c5d565b73ffffffffffffffffffffffffffffffffffffffff168473ffffffffffffffffffffffffffffffffffffffff1614806120ad575061207e610c5d565b73ffffffffffffffffffffffffffffffffffffffff168373ffffffffffffffffffffffffffffffffffffffff16145b6120ec576040517f08c379a00000000000000000000000000000000000000000000000000000000081526004016120e390613bc1565b60405180910390fd5b5b50505050565b50505050565b600061211a8473ffffffffffffffffffffffffffffffffffffffff166124fd565b15612273578373ffffffffffffffffffffffffffffffffffffffff1663150b7a0261214361154f565b8786866040518563ffffffff1660e01b81526004016121659493929190613c36565b6020604051808303816000875af19250505080156121a157506040513d601f19601f8201168201806040525081019061219e9190613c97565b60015b612223573d80600081146121d1576040519150601f19603f3d011682016040523d82523d6000602084013e6121d6565b606091505b50600081510361221b576040517f08c379a000000000000000000000000000000000000000000000000000000000815260040161221290613af7565b60405180910390fd5b805181602001fd5b63150b7a0260e01b7bffffffffffffffffffffffffffffffffffffffffffffffffffffffff1916817bffffffffffffffffffffffffffffffffffffffffffffffffffffffff191614915050612278565b600190505b949350505050565b61228a8383612520565b61229760008484846120f9565b6122d6576040517f08c379a00000000000000000000000000000000000000000000000000000000081526004016122cd90613af7565b60405180910390fd5b505050565b6060600060016122ea8461273d565b01905060008167ffffffffffffffff81111561230957612308612dac565b5b6040519080825280601f01601f19166020018201604052801561233b5781602001600182028036833780820191505090505b509050600082602001820190505b60011561239e578080600190039150507f3031323334353637383961626364656600000000000000000000000000000000600a86061a8153600a858161239257612391613543565b5b04945060008503612349575b819350505050919050565b60006123b482610b0c565b90506123c4816000846001611fbf565b6123cd82610b0c565b90506004600083815260200190815260200160002060006101000a81549073ffffffffffffffffffffffffffffffffffffffff02191690556001600360008373ffffffffffffffffffffffffffffffffffffffff1673ffffffffffffffffffffffffffffffffffffffff168152602001908152602001600020600082825403925050819055506002600083815260200190815260200160002060006101000a81549073ffffffffffffffffffffffffffffffffffffffff021916905581600073ffffffffffffffffffffffffffffffffffffffff168273ffffffffffffffffffffffffffffffffffffffff167fddf252ad1be2c89b69c2b068fc378daa952ba7f163c4a11628f55a4df523b3ef60405160405180910390a46124f38160008460016120f3565b5050565b50505050565b6000808273ffffffffffffffffffffffffffffffffffffffff163b119050919050565b600073ffffffffffffffffffffffffffffffffffffffff168273ffffffffffffffffffffffffffffffffffffffff160361258f576040517f08c379a000000000000000000000000000000000000000000000000000000000815260040161258690613d10565b60405180910390fd5b61259881611f7e565b156125d8576040517f08c379a00000000000000000000000000000000000000000000000000000000081526004016125cf90613d7c565b60405180910390fd5b6125e6600083836001611fbf565b6125ef81611f7e565b1561262f576040517f08c379a000000000000000000000000000000000000000000000000000000000815260040161262690613d7c565b60405180910390fd5b6001600360008473ffffffffffffffffffffffffffffffffffffffff1673ffffffffffffffffffffffffffffffffffffffff16815260200190815260200160002060008282540192505081905550816002600083815260200190815260200160002060006101000a81548173ffffffffffffffffffffffffffffffffffffffff021916908373ffffffffffffffffffffffffffffffffffffffff160217905550808273ffffffffffffffffffffffffffffffffffffffff16600073ffffffffffffffffffffffffffffffffffffffff167fddf252ad1be2c89b69c2b068fc378daa952ba7f163c4a11628f55a4df523b3ef60405160405180910390a46127396000838360016120f3565b5050565b600080600090507a184f03e93ff9f4daa797ed6e38ed64bf6a1f010000000000000000831061279b577a184f03e93ff9f4daa797ed6e38ed64bf6a1f010000000000000000838161279157612790613543565b5b0492506040810190505b6d04ee2d6d415b85acef810000000083106127d8576d04ee2d6d415b85acef810000000083816127ce576127cd613543565b5b0492506020810190505b662386f26fc10000831061280757662386f26fc1000083816127fd576127fc613543565b5b0492506010810190505b6305f5e1008310612830576305f5e100838161282657612825613543565b5b0492506008810190505b612710831061285557612710838161284b5761284a613543565b5b0492506004810190505b60648310612878576064838161286e5761286d613543565b5b0492506002810190505b600a8310612887576001810190505b80915050919050565b50805461289c906130a9565b6000825580601f106128ae57506128cd565b601f0160209004906000526020600020908101906128cc91906128d0565b5b50565b5b808211156128e95760008160009055506001016128d1565b5090565b6000604051905090565b600080fd5b600080fd5b60007fffffffff0000000000000000000000000000000000000000000000000000000082169050919050565b61293681612901565b811461294157600080fd5b50565b6000813590506129538161292d565b92915050565b60006020828403121561296f5761296e6128f7565b5b600061297d84828501612944565b91505092915050565b60008115159050919050565b61299b81612986565b82525050565b60006020820190506129b66000830184612992565b92915050565b600081519050919050565b600082825260208201905092915050565b60005b838110156129f65780820151818401526020810190506129db565b60008484015250505050565b6000601f19601f8301169050919050565b6000612a1e826129bc565b612a2881856129c7565b9350612a388185602086016129d8565b612a4181612a02565b840191505092915050565b60006020820190508181036000830152612a668184612a13565b905092915050565b6000819050919050565b612a8181612a6e565b8114612a8c57600080fd5b50565b600081359050612a9e81612a78565b92915050565b600060208284031215612aba57612ab96128f7565b5b6000612ac884828501612a8f565b91505092915050565b600073ffffffffffffffffffffffffffffffffffffffff82169050919050565b6000612afc82612ad1565b9050919050565b612b0c81612af1565b82525050565b6000602082019050612b276000830184612b03565b92915050565b612b3681612af1565b8114612b4157600080fd5b50565b600081359050612b5381612b2d565b92915050565b60008060408385031215612b7057612b6f6128f7565b5b6000612b7e85828601612b44565b9250506020612b8f85828601612a8f565b9150509250929050565b600080600060608486031215612bb257612bb16128f7565b5b6000612bc086828701612b44565b9350506020612bd186828701612b44565b9250506040612be286828701612a8f565b9150509250925092565b612bf581612a6e565b82525050565b7f4e487b7100000000000000000000000000000000000000000000000000000000600052602160045260246000fd5b60038110612c3b57612c3a612bfb565b5b50565b6000819050612c4c82612c2a565b919050565b6000612c5c82612c3e565b9050919050565b612c6c81612c51565b82525050565b6000608082019050612c876000830187612b03565b612c946020830186612bec565b612ca16040830185612bec565b612cae6060830184612c63565b95945050505050565b6000606082019050612ccc6000830186612bec565b612cd96020830185612bec565b612ce66040830184612c63565b949350505050565b6000602082019050612d036000830184612bec565b92915050565b600060208284031215612d1f57612d1e6128f7565b5b6000612d2d84828501612b44565b91505092915050565b612d3f81612986565b8114612d4a57600080fd5b50565b600081359050612d5c81612d36565b92915050565b60008060408385031215612d7957612d786128f7565b5b6000612d8785828601612b44565b9250506020612d9885828601612d4d565b9150509250929050565b600080fd5b600080fd5b7f4e487b7100000000000000000000000000000000000000000000000000000000600052604160045260246000fd5b612de482612a02565b810181811067ffffffffffffffff82111715612e0357612e02612dac565b5b80604052505050565b6000612e166128ed565b9050612e228282612ddb565b919050565b600067ffffffffffffffff821115612e4257612e41612dac565b5b612e4b82612a02565b9050602081019050919050565b82818337600083830152505050565b6000612e7a612e7584612e27565b612e0c565b905082815260208101848484011115612e9657612e95612da7565b5b612ea1848285612e58565b509392505050565b600082601f830112612ebe57612ebd612da2565b5b8135612ece848260208601612e67565b91505092915050565b60008060008060808587031215612ef157612ef06128f7565b5b6000612eff87828801612b44565b9450506020612f1087828801612b44565b9350506040612f2187828801612a8f565b925050606085013567ffffffffffffffff811115612f4257612f416128fc565b5b612f4e87828801612ea9565b91505092959194509250565b600081519050919050565b600082825260208201905092915050565b6000819050602082019050919050565b612f8f81612a6e565b82525050565b6000612fa18383612f86565b60208301905092915050565b6000602082019050919050565b6000612fc582612f5a565b612fcf8185612f65565b9350612fda83612f76565b8060005b8381101561300b578151612ff28882612f95565b9750612ffd83612fad565b925050600181019050612fde565b5085935050505092915050565b600060208201905081810360008301526130328184612fba565b905092915050565b60008060408385031215613051576130506128f7565b5b600061305f85828601612b44565b925050602061307085828601612b44565b9150509250929050565b7f4e487b7100000000000000000000000000000000000000000000000000000000600052602260045260246000fd5b600060028204905060018216806130c157607f821691505b6020821081036130d4576130d361307a565b5b50919050565b7f4552433732313a20617070726f76616c20746f2063757272656e74206f776e6560008201527f7200000000000000000000000000000000000000000000000000000000000000602082015250565b60006131366021836129c7565b9150613141826130da565b604082019050919050565b6000602082019050818103600083015261316581613129565b9050919050565b7f4552433732313a20617070726f76652063616c6c6572206973206e6f7420746f60008201527f6b656e206f776e6572206f7220617070726f76656420666f7220616c6c000000602082015250565b60006131c8603d836129c7565b91506131d38261316c565b604082019050919050565b600060208201905081810360008301526131f7816131bb565b9050919050565b7f6e6f74206f776e65720000000000000000000000000000000000000000000000600082015250565b60006132346009836129c7565b915061323f826131fe565b602082019050919050565b6000602082019050818103600083015261326381613227565b9050919050565b7f7374617465000000000000000000000000000000000000000000000000000000600082015250565b60006132a06005836129c7565b91506132ab8261326a565b602082019050919050565b600060208201905081810360008301526132cf81613293565b9050919050565b7f4552433732313a2063616c6c6572206973206e6f7420746f6b656e206f776e6560008201527f72206f7220617070726f76656400000000000000000000000000000000000000602082015250565b6000613332602d836129c7565b915061333d826132d6565b604082019050919050565b6000602082019050818103600083015261336181613325565b9050919050565b7f4552433732313a20696e76616c696420746f6b656e2049440000000000000000600082015250565b600061339e6018836129c7565b91506133a982613368565b602082019050919050565b600060208201905081810360008301526133cd81613391565b9050919050565b7f4552433732313a2061646472657373207a65726f206973206e6f74206120766160008201527f6c6964206f776e65720000000000000000000000000000000000000000000000602082015250565b60006134306029836129c7565b915061343b826133d4565b604082019050919050565b6000602082019050818103600083015261345f81613423565b9050919050565b7f6e6f742072657475726e65640000000000000000000000000000000000000000600082015250565b600061349c600c836129c7565b91506134a782613466565b602082019050919050565b600060208201905081810360008301526134cb8161348f565b9050919050565b7f4e487b7100000000000000000000000000000000000000000000000000000000600052601160045260246000fd5b600061350c82612a6e565b915061351783612a6e565b925082820261352581612a6e565b9150828204841483151761353c5761353b6134d2565b5b5092915050565b7f4e487b7100000000000000000000000000000000000000000000000000000000600052601260045260246000fd5b600061357d82612a6e565b915061358883612a6e565b92508261359857613597613543565b5b828204905092915050565b7f756e646572706179000000000000000000000000000000000000000000000000600082015250565b60006135d96008836129c7565b91506135e4826135a3565b602082019050919050565b60006020820190508181036000830152613608816135cc565b9050919050565b600061361a82612a6e565b915061362583612a6e565b925082820390508181111561363d5761363c6134d2565b5b92915050565b7f6465706f73697420726571756972656400000000000000000000000000000000600082015250565b60006136796010836129c7565b915061368482613643565b602082019050919050565b600060208201905081810360008301526136a88161366c565b9050919050565b60006136ba82612a6e565b91507fffffffffffffffffffffffffffffffffffffffffffffffffffffffffffffffff82036136ec576136eb6134d2565b5b600182019050919050565b600081905092915050565b600061370d826129bc565b61371781856136f7565b93506137278185602086016129d8565b80840191505092915050565b600061373f8285613702565b915061374b8284613702565b91508190509392505050565b7f616c726561647900000000000000000000000000000000000000000000000000600082015250565b600061378d6007836129c7565b915061379882613757565b602082019050919050565b600060208201905081810360008301526137bc81613780565b9050919050565b7f4f776e61626c653a206e6577206f776e657220697320746865207a65726f206160008201527f6464726573730000000000000000000000000000000000000000000000000000602082015250565b600061381f6026836129c7565b915061382a826137c3565b604082019050919050565b6000602082019050818103600083015261384e81613812565b9050919050565b7f4552433732313a207472616e736665722066726f6d20696e636f72726563742060008201527f6f776e6572000000000000000000000000000000000000000000000000000000602082015250565b60006138b16025836129c7565b91506138bc82613855565b604082019050919050565b600060208201905081810360008301526138e0816138a4565b9050919050565b7f4552433732313a207472616e7366657220746f20746865207a65726f2061646460008201527f7265737300000000000000000000000000000000000000000000000000000000602082015250565b60006139436024836129c7565b915061394e826138e7565b604082019050919050565b6000602082019050818103600083015261397281613936565b9050919050565b600061398482612a6e565b915061398f83612a6e565b92508282019050808211156139a7576139a66134d2565b5b92915050565b7f4f776e61626c653a2063616c6c6572206973206e6f7420746865206f776e6572600082015250565b60006139e36020836129c7565b91506139ee826139ad565b602082019050919050565b60006020820190508181036000830152613a12816139d6565b9050919050565b7f4552433732313a20617070726f766520746f2063616c6c657200000000000000600082015250565b6000613a4f6019836129c7565b9150613a5a82613a19565b602082019050919050565b60006020820190508181036000830152613a7e81613a42565b9050919050565b7f4552433732313a207472616e7366657220746f206e6f6e20455243373231526560008201527f63656976657220696d706c656d656e7465720000000000000000000000000000602082015250565b6000613ae16032836129c7565b9150613aec82613a85565b604082019050919050565b60006020820190508181036000830152613b1081613ad4565b9050919050565b7f4e487b7100000000000000000000000000000000000000000000000000000000600052603260045260246000fd5b7f4e487b7100000000000000000000000000000000000000000000000000000000600052603160045260246000fd5b7f736f756c2d626f756e6400000000000000000000000000000000000000000000600082015250565b6000613bab600a836129c7565b9150613bb682613b75565b602082019050919050565b60006020820190508181036000830152613bda81613b9e565b9050919050565b600081519050919050565b600082825260208201905092915050565b6000613c0882613be1565b613c128185613bec565b9350613c228185602086016129d8565b613c2b81612a02565b840191505092915050565b6000608082019050613c4b6000830187612b03565b613c586020830186612b03565b613c656040830185612bec565b8181036060830152613c778184613bfd565b905095945050505050565b600081519050613c918161292d565b92915050565b600060208284031215613cad57613cac6128f7565b5b6000613cbb84828501613c82565b91505092915050565b7f4552433732313a206d696e7420746f20746865207a65726f2061646472657373600082015250565b6000613cfa6020836129c7565b9150613d0582613cc4565b602082019050919050565b60006020820190508181036000830152613d2981613ced565b9050919050565b7f4552433732313a20746f6b656e20616c7265616479206d696e74656400000000600082015250565b6000613d66601c836129c7565b9150613d7182613d30565b602082019050919050565b60006020820190508181036000830152613d9581613d59565b905091905056fea26469706673582212207ad85f8f79e3b1b7df6c0affc7a0d81334c0b7c7f4629a5974e99850da581b3b64736f6c63430008180033",
  "linkReferences": {},
  "deployedLinkReferences": {}
}